{
  "contractName": "Lottery",
  "abi": [
    {
      "inputs": [],
      "stateMutability": "nonpayable",
      "type": "constructor"
    },
    {
      "inputs": [
        {
          "internalType": "uint256",
          "name": "",
          "type": "uint256"
        }
      ],
      "name": "lotteryHistory",
      "outputs": [
        {
          "internalType": "address payable",
          "name": "",
          "type": "address"
        }
      ],
      "stateMutability": "view",
      "type": "function"
    },
    {
      "inputs": [],
      "name": "lotteryId",
      "outputs": [
        {
          "internalType": "uint256",
          "name": "",
          "type": "uint256"
        }
      ],
      "stateMutability": "view",
      "type": "function"
    },
    {
      "inputs": [],
      "name": "owner",
      "outputs": [
        {
          "internalType": "address",
          "name": "",
          "type": "address"
        }
      ],
      "stateMutability": "view",
      "type": "function"
    },
    {
      "inputs": [
        {
          "internalType": "uint256",
          "name": "",
          "type": "uint256"
        }
      ],
      "name": "players",
      "outputs": [
        {
          "internalType": "address payable",
          "name": "",
          "type": "address"
        }
      ],
      "stateMutability": "view",
      "type": "function"
    },
    {
      "inputs": [
        {
          "internalType": "uint256",
          "name": "lottery",
          "type": "uint256"
        }
      ],
      "name": "getWinnerByLottery",
      "outputs": [
        {
          "internalType": "address payable",
          "name": "",
          "type": "address"
        }
      ],
      "stateMutability": "view",
      "type": "function"
    },
    {
      "inputs": [],
      "name": "getBalance",
      "outputs": [
        {
          "internalType": "uint256",
          "name": "",
          "type": "uint256"
        }
      ],
      "stateMutability": "view",
      "type": "function"
    },
    {
      "inputs": [],
      "name": "getPlayers",
      "outputs": [
        {
          "internalType": "address payable[]",
          "name": "",
          "type": "address[]"
        }
      ],
      "stateMutability": "view",
      "type": "function"
    },
    {
      "inputs": [],
      "name": "enter",
      "outputs": [],
      "stateMutability": "payable",
      "type": "function"
    },
    {
      "inputs": [],
      "name": "getRandomNumber",
      "outputs": [
        {
          "internalType": "uint256",
          "name": "",
          "type": "uint256"
        }
      ],
      "stateMutability": "view",
      "type": "function"
    },
    {
      "inputs": [],
      "name": "pickWinner",
      "outputs": [],
      "stateMutability": "nonpayable",
      "type": "function"
    }
  ],
  "bytecode": "0x608060405234801561000f575f80fd5b50335f806101000a81548173ffffffffffffffffffffffffffffffffffffffff021916908373ffffffffffffffffffffffffffffffffffffffff1602179055506001600281905550610ad8806100645f395ff3fe608060405260043610610090575f3560e01c80638da5cb5b116100585780638da5cb5b14610176578063dbdff2c1146101a0578063e580f47b146101ca578063e97dcb62146101f4578063f71d96cb146101fe57610090565b806312065fe014610094578063281d098d146100be5780635d495aea146100fa5780636d6fe230146101105780638b5b9ccc1461014c575b5f80fd5b34801561009f575f80fd5b506100a861023a565b6040516100b5919061070d565b60405180910390f35b3480156100c9575f80fd5b506100e460048036038101906100df9190610754565b610241565b6040516100f191906107be565b60405180910390f35b348015610105575f80fd5b5061010e61027a565b005b34801561011b575f80fd5b5061013660048036038101906101319190610754565b61046f565b60405161014391906107be565b60405180910390f35b348015610157575f80fd5b5061016061049f565b60405161016d919061088e565b60405180910390f35b348015610181575f80fd5b5061018a61052a565b60405161019791906108ce565b60405180910390f35b3480156101ab575f80fd5b506101b461054d565b6040516101c1919061070d565b60405180910390f35b3480156101d5575f80fd5b506101de61059e565b6040516101eb919061070d565b60405180910390f35b6101fc6105a4565b005b348015610209575f80fd5b50610224600480360381019061021f9190610754565b610618565b60405161023191906107be565b60405180910390f35b5f47905090565b5f60035f8381526020019081526020015f205f9054906101000a900473ffffffffffffffffffffffffffffffffffffffff169050919050565b5f8054906101000a900473ffffffffffffffffffffffffffffffffffffffff1673ffffffffffffffffffffffffffffffffffffffff163373ffffffffffffffffffffffffffffffffffffffff16146102d0575f80fd5b5f6001805490506102df61054d565b6102e99190610914565b9050600181815481106102ff576102fe610944565b5b905f5260205f20015f9054906101000a900473ffffffffffffffffffffffffffffffffffffffff1673ffffffffffffffffffffffffffffffffffffffff166108fc4790811502906040515f60405180830381858888f19350505050158015610369573d5f803e3d5ffd5b506001818154811061037e5761037d610944565b5b905f5260205f20015f9054906101000a900473ffffffffffffffffffffffffffffffffffffffff1660035f60025481526020019081526020015f205f6101000a81548173ffffffffffffffffffffffffffffffffffffffff021916908373ffffffffffffffffffffffffffffffffffffffff16021790555060025f8154809291906104089061099e565b91905055505f67ffffffffffffffff811115610427576104266109e5565b5b6040519080825280602002602001820160405280156104555781602001602082028036833780820191505090505b506001908051906020019061046b929190610653565b5050565b6003602052805f5260405f205f915054906101000a900473ffffffffffffffffffffffffffffffffffffffff1681565b6060600180548060200260200160405190810160405280929190818152602001828054801561052057602002820191905f5260205f20905b815f9054906101000a900473ffffffffffffffffffffffffffffffffffffffff1673ffffffffffffffffffffffffffffffffffffffff16815260200190600101908083116104d7575b5050505050905090565b5f8054906101000a900473ffffffffffffffffffffffffffffffffffffffff1681565b5f805f9054906101000a900473ffffffffffffffffffffffffffffffffffffffff1642604051602001610581929190610a77565b604051602081830303815290604052805190602001205f1c905090565b60025481565b662386f26fc1000034116105b6575f80fd5b600133908060018154018082558091505060019003905f5260205f20015f9091909190916101000a81548173ffffffffffffffffffffffffffffffffffffffff021916908373ffffffffffffffffffffffffffffffffffffffff160217905550565b60018181548110610627575f80fd5b905f5260205f20015f915054906101000a900473ffffffffffffffffffffffffffffffffffffffff1681565b828054828255905f5260205f209081019282156106c9579160200282015b828111156106c8578251825f6101000a81548173ffffffffffffffffffffffffffffffffffffffff021916908373ffffffffffffffffffffffffffffffffffffffff16021790555091602001919060010190610671565b5b5090506106d691906106da565b5090565b5b808211156106f1575f815f9055506001016106db565b5090565b5f819050919050565b610707816106f5565b82525050565b5f6020820190506107205f8301846106fe565b92915050565b5f80fd5b610733816106f5565b811461073d575f80fd5b50565b5f8135905061074e8161072a565b92915050565b5f6020828403121561076957610768610726565b5b5f61077684828501610740565b91505092915050565b5f73ffffffffffffffffffffffffffffffffffffffff82169050919050565b5f6107a88261077f565b9050919050565b6107b88161079e565b82525050565b5f6020820190506107d15f8301846107af565b92915050565b5f81519050919050565b5f82825260208201905092915050565b5f819050602082019050919050565b6108098161079e565b82525050565b5f61081a8383610800565b60208301905092915050565b5f602082019050919050565b5f61083c826107d7565b61084681856107e1565b9350610851836107f1565b805f5b83811015610881578151610868888261080f565b975061087383610826565b925050600181019050610854565b5085935050505092915050565b5f6020820190508181035f8301526108a68184610832565b905092915050565b5f6108b88261077f565b9050919050565b6108c8816108ae565b82525050565b5f6020820190506108e15f8301846108bf565b92915050565b7f4e487b71000000000000000000000000000000000000000000000000000000005f52601260045260245ffd5b5f61091e826106f5565b9150610929836106f5565b925082610939576109386108e7565b5b828206905092915050565b7f4e487b71000000000000000000000000000000000000000000000000000000005f52603260045260245ffd5b7f4e487b71000000000000000000000000000000000000000000000000000000005f52601160045260245ffd5b5f6109a8826106f5565b91507fffffffffffffffffffffffffffffffffffffffffffffffffffffffffffffffff82036109da576109d9610971565b5b600182019050919050565b7f4e487b71000000000000000000000000000000000000000000000000000000005f52604160045260245ffd5b5f8160601b9050919050565b5f610a2882610a12565b9050919050565b5f610a3982610a1e565b9050919050565b610a51610a4c826108ae565b610a2f565b82525050565b5f819050919050565b610a71610a6c826106f5565b610a57565b82525050565b5f610a828285610a40565b601482019150610a928284610a60565b602082019150819050939250505056fea26469706673582212202717a762d5b58387becc356e2a40f1906c11c86db18d1507dffdcf2bb57844d264736f6c63430008170033",
  "immutableReferences": {},
  "source": "// SPDX-License-Identifier: MIT\r\n\r\n\r\npragma solidity ^0.8.18;\r\n\r\ncontract Lottery {\r\n\r\n    address public owner;\r\n    address payable[] public players;\r\n    uint public lotteryId;\r\n    mapping (uint => address payable) public lotteryHistory;\r\n\r\n    constructor() {\r\n        owner = msg.sender;\r\n        lotteryId = 1;\r\n    }\r\n\r\n    function getWinnerByLottery(uint lottery) public view returns (address payable) {\r\n        return lotteryHistory[lottery];\r\n    }\r\n\r\n    function getBalance() public view returns (uint) {\r\n        return address(this).balance;\r\n    }\r\n\r\n    function getPlayers() public view returns (address payable[] memory) {\r\n        return players;\r\n    }\r\n\r\n    function enter() public payable {\r\n        require(msg.value > .01 ether);\r\n        players.push(payable(msg.sender));\r\n    }\r\n\r\n    function getRandomNumber() public view returns (uint) {\r\n        return uint(keccak256(abi.encodePacked(owner, block.timestamp)));\r\n    }\r\n\r\n    function pickWinner() public onlyowner {\r\n        uint index = getRandomNumber() % players.length;\r\n        players[index].transfer(address(this).balance);\r\n\r\n        lotteryHistory[lotteryId] = players[index];\r\n        lotteryId++;\r\n        \r\n        players = new address payable[](0);\r\n    }\r\n\r\n    modifier onlyowner() {\r\n      require(msg.sender == owner);\r\n      _;\r\n    }\r\n}\r\n",
  "sourcePath": "C:\\Users\\efeon\\OneDrive\\Masast\\LotteryD-app\\lottery\\contracts\\Lottery.sol",
  "compiler": {
    "name": "solc",
    "version": "0.8.23+commit.f704f362.Emscripten.clang"
  },
  "schemaVersion": "3.4.16",
  "updatedAt": "2023-12-21T09:05:55.446Z",
  "devdoc": {
    "kind": "dev",
    "methods": {},
    "version": 1
  },
  "userdoc": {
    "kind": "user",
    "methods": {},
    "version": 1
  }
}